:020000040800F2
:1000000030B4002079020008791E0008711E000833
:10001000751E0008E9070008BD2100080000000067
:10002000000000000000000000000000E1010008E6
:10003000ED0700080000000025020008A51E0008CA
:10004000930200089302000893020008930200083C
:10005000930200089302000893020008930200082C
:10006000930200089302000893020008930200081C
:10007000930200089302000893020008930200080C
:1000800093020008930200089302000893020008FC
:1000900093020008930200089302000893020008EC
:1000A00093020008930200089302000893020008DC
:1000B00093020008930200089302000893020008CC
:1000C00093020008930200089302000893020008BC
:1000D0009302000899210008930200089302000887
:1000E000930200089302000893020008930200089C
:1000F000930200089302000893020008930200088C
:10010000930200089302000893020008930200087B
:100110009302000893020008BD1E0008CD1E0008CF
:10012000930200089302000893020008930200085B
:1001300000F002F800F045F80AA090E8000C8244B4
:100140008344AAF10107DA4501D100F03AF8AFF291
:10015000090EBAE80F0013F0010F18BFFB1A43F0A5
:10016000010318479C820000BC820000103A24BFA3
:1001700078C878C1FAD8520724BF30C830C144BF0C
:1001800004680C607047000000230024002500264E
:10019000103A28BF78C1FBD8520728BF30C148BFEA
:1001A0000B607047642900F00D81782900F04681CA
:1001B000732900F07882002070471FB51FBD10B56D
:1001C00010BD00F0DFFA1146FFF7F7FF04F0A8FFBB
:1001D00000F0FDFA03B4FFF7F2FF03BC02F00CF8E5
:1001E000224B19680868B0E8F00F80F30988BFF364
:1001F0006F8F4FF0000080F311884EF00D0E7047A6
:100200000000000006480068006880F3088862B6B5
:1002100061B6BFF34F8FBFF36F8F00DF00BF00BF2A
:1002200008ED00E0EFF30980BFF36F8F0F4B1A6802
:1002300020E9F00F106008B54FF0500080F31188EE
:10024000BFF34F8FBFF36F8F06F048FE4FF00000F3
:1002500080F31188BDE8084019680868B0E8F00F1D
:1002600080F30988BFF36F8F704700BF78000020CC
:10027000EFF30580704700000948804709480047B0
:10028000FEE7FEE7FEE7FEE7FEE7FEE7FEE7FEE746
:10029000FEE7FEE704480549054A064B70470000A3
:1002A000B91E00083101000830AE002030B4002033
:1002B00030B0002030B00020704700000FB4044977
:1002C00010B503AA029800F0F3F910BC5DF814FB16
:1002D000480000200FB41CB50C0007AA009001D004
:1002E0002044401E074B7B4469460190069800F06D
:1002F000A8F9002C03D06946002000F0B5F91CBC19
:100300005DF814FB890300002DE9F0410E46044618
:10031000002020622046E168884730B3252805D0B8
:10032000D4E901219047206A401CF2E7E1682046A9
:1003300000278847050018D0A5F14100192802D8E8
:1003400020354FF400673246294620462760FFF7E4
:1003500029FF40B1012804D0F61D26F00706083613
:10036000D8E7361DD6E72846DAE7206ABDE8F081EF
:1003700070B50C460546012A05D02878800600D5C0
:10038000EA69002302E0012305E05B1C934202D2EC
:10039000E05C0028F9D1A869E618C01AA861286AAB
:1003A000184428622846AFF3008004E0D5E9012113
:1003B00014F8010B9047B442F8D32846AFF30080FD
:1003C00070BD00002DE9F041064600241068752933
:1003D000314616A510D0AFF30080002802DA404263
:1003E00013A507E031688A0701D512A502E0490785
:1003F00004D511A5012401E0AFF3008000210A22F9
:1004000006F1240709E0B0FBF2FCB0FBF2F302FBBB
:100410001C00303078541846491C0028F3D123467C
:100420002A463046BDE8F04100F0ACB800000000BC
:100430002D0000002B0000002000000070B50446D5
:100440000D4621461068AFF300802188090502D5CA
:100450000F4A7A4402E00E4A7A440E32002104F137
:10046000240305E000F00F060009965D5E54491C68
:100470000028F7D120780023000704D5702D02D082
:1004800009B1022311322046BDE8704000F07AB86D
:10049000827F0000032A40F2308010F0030C00F04D
:1004A000158011F8013BBCF1020F624498BF11F8AE
:1004B00001CB00F8013B38BF11F8013BA2F1040267
:1004C00098BF00F801CB38BF00F8013B11F00303DF
:1004D00000F00081083AC0F0088051F8043B083A67
:1004E00051F804CBA0E80810F5E7121D5CBF51F8E5
:1004F000043B40F8043BAFF30080D20724BF11F85F
:10050000013B11F801CB48BF11F8012B24BF00F8C3
:10051000013B00F801CB48BF00F8012B704702F007
:10052000FF0343EA032242EA024200F007B94FF018
:10053000000200B5134694469646203922BFA0E833
:100540000C50A0E80C50B1F12001BFF4F7AF09073F
:1005500028BFA0E80C5048BF0CC05DF804EB890030
:1005600028BF40F8042B08BF704748BF20F8022B73
:1005700011F0804F18BF00F8012B7047704770478B
:10058000704770472DE9F0470D469946924604465C
:1005900000F124080168880604D5E06921F0100103
:1005A000216000E00120A84201DD471B00E0002798
:1005B000A1697A1902EB0900081AA0612078C00627
:1005C00002D42046AFF30080002608E0D4E90121E0
:1005D0001AF806009047206A401C761C20624E459F
:1005E000F4DB2078C0060AD52046AFF3008006E091
:1005F000D4E9012130209047206A401C2062381E37
:10060000A7F10107F4DC07E0D4E9012118F805009F
:100610009047206A401C2062281EA5F10105F3DCEA
:100620002046AFF300802078000602D50220BDE806
:10063000F0870120FBE7000001694A1C026108788D
:10064000704700B58FB0CDE9013100210591054912
:100650007944CDE9031011466846FFF755FE0FB007
:1006600000BD0000E5FFFFFF0A6802F8010B0A6009
:100670007047D1E900239A4202D2531C0B601070DC
:10068000704710B5436913B1AFF3008001E0FFF785
:100690006FFE012010BD127800F124010A700022C3
:1006A0004A700122EDE711684FF0FF32E9E70000E0
:1006B000074B70B50D467B44FFF7C3FF0446284641
:1006C00000F05CF810B14FF0FF3070BD204670BDF7
:1006D000F31B000010B5203AC0F00B80B1E81850B1
:1006E000203AA0E81850B1E81850A0E81850BFF41C
:1006F000F5AF5FEA027C24BFB1E81850A0E81850BB
:1007000044BF18C918C0BDE810405FEA827C24BF0E
:1007100051F8043B40F8043B08BF7047D20728BF9C
:1007200031F8023B48BF11F8012B28BF20F8023BEB
:1007300048BF00F8012B70474FF000020429C0F0B9
:10074000128010F0030C3FF4F4AECCF1040CBCF1B9
:10075000020F18BF00F8012BA8BF20F8022BA1EB55
:100760000C01FFF7E6BE5FEAC17C24BF00F8012B55
:1007700000F8012B48BF00F8012B7047007B00F008
:1007800080007047754600F02BF8AE4605006946BC
:10079000534620F00700854618B020B5FFF77AFDD4
:1007A000BDE820404FF000064FF000074FF0000872
:1007B0004FF0000B21F00701AC46ACE8C009ACE8F3
:1007C000C009ACE8C009ACE8C0098D46704710B557
:1007D0000446AFF300802046BDE81040FFF7FABCA6
:1007E00000487047CCAD002000BFFEE77047000016
:1007F00000B585B000BF0D48806940F020000B496E
:1008000088610846806900F02000009000BF00BFAA
:100810000120019000200290012003900320049009
:1008200001A9034800F09EF905B000BD0010024088
:100830000014014000B585B000BF0C48806940F04D
:1008400020000A4988610846806900F02000009075
:1008500000BF00BF0120019002900320049001A975
:10086000034800F07FF905B000BD00000010024011
:100870000014014010B501221146024800F024FB8B
:1008800010BD00000014014010B5002201210248F3
:1008900000F01AFB10BD00000014014010B5FFF776
:1008A000C9FFFFF7F1FF142001F0D0FCFFF7E2FFD2
:1008B0001E2001F0D7FCFFF79BFF10BD70B504466A
:1008C000B3F5804F13D1D1E9000540EA05108D68DA
:1008D00040EA05208D6928438D8940EA054054F897
:1008E0002250064E3540284344F8220003E06FF0C2
:1008F000704044F82200002070BD00000000F0CFDE
:1009000070B50246086852F8200020F001000E6819
:1009100042F826008868082801D1402300E000231F
:10092000486818438E683043CE6830430E693043C0
:100930004E693043CE6930430E6A30434E6A3043CD
:100940008E6A3043CE6A30430E6B40EA06048869F3
:100950000443486B0443074D45F4806545F4E025A6
:10096000086852F82000A84320430E6842F8260089
:10097000002070BD7FFB080010B50346D1E90004DC
:1009800040EA04108C6840EA04208C8940EA044460
:10099000088A401E44EA0054087D801E44EA006034
:1009A0008C692043541C53F8244004F040442043F5
:1009B000541C43F82400002010BD000070B504460C
:1009C000002594F82100022803D00420A06301250B
:1009D000C1E02068006820F00E00216808602068EF
:1009E000006820F00100216808605C4920688842A6
:1009F00052D95A4978392068884201D1012047E00C
:100A0000564964392068884201D1102040E053499A
:100A100050392068884201D1801539E04F493C396E
:100A20002068884201D1801432E04C49283920687E
:100A3000884202D14FF480302AE0484914392068B6
:100A4000884202D14FF4801022E044492068884255
:100A500001D140041CE042492068884201D10120B4
:100A600016E03F4914312068884201D110200FE080
:100A70003B4928312068884201D1801508E0384977
:100A80003C312068884201D1801401E04FF480306D
:100A90003349091F086051E030497839206888429D
:100AA00001D1012047E02D4964392068884201D1F5
:100AB000102040E0294950392068884201D1801532
:100AC00039E026493C392068884201D1801432E05F
:100AD000224928392068884202D14FF480302AE028
:100AE0001E4914392068884202D14FF4801022E058
:100AF0001A492068884201D140041CE01849206846
:100B0000884201D1012016E015491431206888423D
:100B100001D110200FE0124928312068884201D10C
:100B2000801508E00E493C312068884201D18014CC
:100B300001E04FF48030094980394860012084F891
:100B4000210000BF002084F8200000BF606B10B1BE
:100B50002046616B8847284670BD00008000024037
:100B6000080402402DE9F847024600239C467BE139
:100B70004FF0010808FA03F4D1F8008008EA0400F5
:100B8000A0427DD1DFF8F4A2D1F80480A8EB0A09D5
:100B9000D0453AD014DCB8F1030F50D009DCB8F1DD
:100BA000000F31D0B8F1010F1CD0B8F1020F49D1BC
:100BB00020E0B8F1110F18D0B8F1120F42D11EE0A9
:100BC000B9F5881F25D006DCB9F5803F20D0B9F5EE
:100BD000801F37D11AE0B9F5001F18D0B9F5041FEE
:100BE00030D117E0D1F80CC02DE0D1F80C8008F11D
:100BF000040C28E0D1F80C8008F1080C23E0D1F8AF
:100C00000C8008F10C0C1EE000BF00BF00BF00BF4D
:100C100000BF00BFD1F80880B8F1000F02D14FF03B
:100C2000040C0BE0D1F80880B8F1010F03D14FF0AC
:100C3000080C146102E04FF0080C546103E04FF01F
:100C4000000C00E000BF00BFFF2801D8904601E083
:100C500002F104084646FF2802D84FEA830803E061
:100C6000A3F108084FEA88084746D6F800804FF0FD
:100C70000F0909FA07F928EA09080CFA07F900E050
:100C80007AE048EA0908C6F80080D1F8048008F044
:100C90008058B8F1805F6FD100BFDFF8E481D8F8E9
:100CA000188048F00108DFF8D891C9F81880C846C4
:100CB000D8F8188008F00108CDF8008000BF00BF08
:100CC0004FEAB9384FEA930958F829504FEA837828
:100CD0004FEA18794FF00F0808FA09F825EA0805D5
:100CE000DFF8A081424502D14FF0000824E0DFF890
:100CF0009881424502D14FF001081DE0DFF88C8158
:100D0000424502D14FF0020816E0DFF884814245E7
:100D100002D14FF003080FE0DFF87881424502D19D
:100D20004FF0040808E0DFF87081424502D14FF02F
:100D3000050801E04FF006084FEA83794FEA197978
:100D400008FA09F848EA0505DFF850814FEA9309E7
:100D500048F82950D1F8048008F48038B8F5803F6D
:100D60000BD1DFF83C81D8F8008048EA0008DFF8B2
:100D70003091C9F800800AE075E0DFF82481D8F8E6
:100D8000008028EA0008DFF81891C9F80080D1F83F
:100D9000048008F40038B8F5003F0ED1DFF8008178
:100DA00008F10408D8F8008048EA0008DFF8F0905D
:100DB00009F10409C9F800800DE0DFF8E48008F1CA
:100DC0000408D8F8008028EA0008DFF8D49009F178
:100DD0000409C9F80080D1F8048008F48018B8F537
:100DE000801F0ED1DFF8B88008F10808D8F800801D
:100DF00048EA0008DFF8A89009F10809C9F800805E
:100E00000DE0DFF89C8008F10808D8F8008028EA97
:100E10000008DFF88C9009F10809C9F80080D1F8C2
:100E2000048008F40018B8F5001F0ED1DFF87080B8
:100E300008F10C08D8F8008048EA0008DFF8609054
:100E400009F10C09C9F800800DE0DFF8548008F1C1
:100E50000C08D8F8008028EA0008DFF8449009F16F
:100E60000C09C9F800805B1CD1F8008028FA03F84F
:100E7000B8F1000F7FF47CAEBDE8F88700001110D8
:100E80000010024000080140000C01400010014029
:100E90000014014000180140001C014008000140FE
:100EA00000040140024693680B400BB1012000E0B2
:100EB0000020704710B5C26821EA020302EA01046B
:100EC00043EA0443036110BD0AB1016101E00B0470
:100ED000036170470148006870470000500000201F
:100EE00003480068034909780844014908607047CD
:100EF000500000205800002010B50848006840F05D
:100F0000100006490860032000F080F80F2000F070
:100F100007F800F02BF8002010BD00000020024070
:100F200070B504460E4800784FF47A71B1FBF0F0CA
:100F30000C490968B1FBF0F5284600F073FC08B1D4
:100F4000012070BD102C07D200222146501E00F057
:100F50001EF80548046001E00120F2E70020F0E7F8
:100F60005800002000000020540000207047014677
:100F70000846002809DB00F01F0301229A404309BC
:100F80009B0003F1E023C3F8002100BF70472DE967
:100F9000F05F80460D461646002701F011F907461E
:100FA00039462A46334601F00700C0F1070ABAF174
:100FB000040F02D94FF0040A01E0C0F1070AD1463C
:100FC00000F1040ABAF1070F02D24FF0000A01E063
:100FD000A0F1030AD4464FF0010A0AFA09FAAAF16D
:100FE000010A0AEA020A0AFA0CFA4FF0010B0BFA9C
:100FF0000CFBABF1010B0BEA030B4AEA0B04214695
:10100000404601F0E5F8BDE8F09F000000BF00F0A9
:101010000702064B19684FF6FF031940044B0B43B8
:1010200043EA0221014B196000BF70470CED00E05C
:101030000000FA0570B504460D460CB9012070BDDC
:101040005A48006800F00700A8420ED257480068CE
:1010500020F007002843554908600846006800F062
:101060000700A84201D00120E9E7207800F0020043
:1010700002281DD1207800F00400042805D14C4836
:10108000406840F4E0604A494860207800F0080079
:10109000082805D14648406840F4605044494860FB
:1010A0004348406820F0F000A16808434049486088
:1010B000207800F0010078B36068012806D13C4830
:1010C000006800F4003090B90120B8E76068022899
:1010D00006D13748006800F0007040B90120AEE743
:1010E0003348006800F0020008B90120A7E7304843
:1010F000406820F00300616808432D494860FFF70D
:10110000E9FE064609E0FFF7E5FE801B41F2883163
:10111000884202D9032092E707E02548406800F0A2
:101120000C006168B0EB810FEDD12048006800F041
:101130000700A8420ED91D48006820F00700284388
:101140001A4908600846006800F00700A84201D06C
:10115000012074E7207800F00400042807D1144827
:10116000406820F4E060E168084311494860207855
:1011700000F00800082808D10D48406820F46050AD
:10118000216940EAC1000A49486000F03FF8084977
:101190004968C1F30311074A515CC8400649086019
:1011A00006480068FFF7BCFE002048E70020024028
:1011B00000100240A8830008000000205400002016
:1011C00001480068704700000000002000B5FFF7EC
:1011D000F7FF04494968C1F30221034A515CC84042
:1011E00000BD000000100240B883000800B5FFF702
:1011F000E7FF04494968C1F3C221034A515CC84072
:1012000000BD000000100240B8830008F0B585B0B2
:101210000FF26C0C9CE8E01001A8A0E8E0101CA5FF
:101220002D68009500210022002300240020194D84
:10123000696801F00C05F5B1042D02D0082D19D113
:1012400001E0154819E001ADC1F38346AC5D01F43E
:10125000803555B10F4D6D68C5F340451DF805202B
:101260000D4D6543B5FBF2F302E00C4D04FB05F3B5
:10127000184602E000BF084800BF00BF05B0F0BD3F
:1012800002030405060708090A0B0C0D0E0F1010C7
:10129000010200000010024000127A0000093D0027
:1012A000F8B504460CB90120F8BD207800F0010023
:1012B000002878D0F848406800F00C0004280CD0D2
:1012C000F548406800F00C00082811D1F248406849
:1012D00000F48030B0F5803F0AD1EF48006800F498
:1012E000003000285FD0606800285CD10120DBE777
:1012F00000BF6068B0F5803F06D1E748006840F461
:101300008030E549086028E0606858B9E248006824
:1013100020F48030E04908600846006820F480200E
:1013200008601AE06068B0F5A02F0BD1DA480068B9
:1013300040F48020D84908600846006840F48030B6
:1013400008600AE0D448006820F48030D249086080
:101350000846006820F48020086000BF606888B1FB
:10136000FFF7B8FD054606E0FFF7B4FD401B642813
:1013700001D9032098E7C848006800F4003000282D
:10138000F2D010E0FFF7A6FD054606E0FFF7A2FD4C
:10139000401B642801D9032086E7BF48006800F499
:1013A00000300028F2D1207800F00200022857D146
:1013B000B948406800F00C0050B1B748406800F0F0
:1013C0000C00082818D1B448406800F4803098B95F
:1013D000B148006800F0020020B12069012801D066
:1013E000012061E7AC48006820F0F800616940EA3C
:1013F000C100A949086033E02069E8B10120A7498C
:101400000860FFF767FD054606E0FFF763FD401B38
:10141000022801D9032047E79F48006800F0020036
:101420000028F2D09C48006820F0F800616940EA8A
:10143000C1009949086013E0002098490860FFF74F
:1014400049FD054606E0FFF745FD401B022801D98E
:10145000032029E79048006800F002000028F2D13C
:10146000207800F0080008282DD1A069B8B101202B
:101470008B490860FFF72EFD054606E0FFF72AFDC1
:10148000401B022801D903200EE78348406A00F080
:1014900002000028F2D0012000F0F0FC13E0002050
:1014A0007F490860FFF716FD054606E0FFF712FDCD
:1014B000401B022801D90320F6E67748406A00F075
:1014C00002000028F2D1207800F00400042873D133
:1014D00000277148C06900F0805070B900BF6E48A5
:1014E000C06940F080506C49C8610846C06900F08E
:1014F0008050009000BF00BF01276A48006800F4D8
:101500008070B0B96748006840F480706549086031
:10151000FFF7E0FC054606E0FFF7DCFC401B642813
:1015200001D90320C0E65F48006800F480700028FD
:10153000F2D000BFE068012806D15748006A40F0A9
:1015400001005549086227E0E06858B95248006A2E
:1015500020F00100504908620846006A20F00400AB
:10156000086219E0E06805280BD14B48006A40F09A
:101570000400494908620846006A40F00100086218
:101580000AE04548006A20F0010043490862084625
:10159000006A20F00400086200BFE068A0B1FFF715
:1015A00099FC054609E0FFF795FC401B41F28831A4
:1015B000884202D9032077E622E03748006A00F02B
:1015C00002000028EFD012E0FFF784FC054608E097
:1015D000FFF780FC401B41F28831884201D903208B
:1015E00062E62D48006A00F002000028F0D1012FC9
:1015F00005D12948C06920F080502749C86100BF43
:10160000E069C8B32448406800F00C00082860D0A6
:10161000E069022848D1002020490866FFF75AFCFB
:10162000054606E0FFF756FC401B022801D90320BF
:101630003AE61948006800F000700028F2D1206AEC
:10164000B0F5803F07D11448406820F40030A1680D
:10165000084311494860D4E9080108430E49496824
:1016600021F4741108430C49486001200B490866B5
:10167000FFF730FC054607E03DE0FFF72BFC401B81
:10168000022801D903200FE60348006800F000702B
:101690000028F2D02FE0000000100240000042427B
:1016A0008004424200700040002014490866FFF7A1
:1016B00011FC054606E0FFF70DFC401B022801D98E
:1016C0000320F1E50E48006800F000700028F2D118
:1016D00011E0E069012800D1E6E50948466806F412
:1016E0008031206A814204D106F47011606A81421F
:1016F00001D00120D8E50020D6E5000000004242DC
:101700000010024070B504460E4615461CB1A06993
:10171000B0F5807F01D1012070BD94F8410028B957
:10172000002084F84000204600F020F804F1080171
:101730002068FFF7E5F83146A2682068FFF71CF93A
:101740002946236BD4E90102FFF7B8F8A1682068A5
:1017500050F8210040F00100A268216841F8220001
:10176000012084F841000020D6E7000010B586B0C3
:10177000044600BF1E48406940F480701C4948611F
:101780000846406900F48070019000BF00BF00BFB0
:101790000846806940F0200088610846806900F0B2
:1017A0002000019000BF00BF00BF0846806940F0E4
:1017B000400088610846806900F04000019000BF49
:1017C00000BF4CF2037002900220039001200490AD
:1017D0000320059002A90748FFF7C4F94FF680706F
:1017E000029002A90448FFF7BDF906B010BD000041
:1017F000001002400014014000180140042808D1E4
:101800004FF0E021096941F004014FF0E02211613D
:1018100007E04FF0E021096921F004014FF0E022D8
:101820001161704770B504462546681EB0F1807F8F
:1018300001D301200FE0681E4FF0E02148610F2125
:101840004FF0FF3000F0C4FC00204FF0E021886131
:1018500007200861002070BD70477047704710B5C1
:10186000044620680069C0F34000D8B12068C06811
:10187000C0F34000B0B16FF00200216808610120A0
:1018800020772068806900F0030018B12046FFF738
:10189000E5FF05E0204600F0ADF8204600F0ABF88B
:1018A0000020207720680069C0F38000D8B120684C
:1018B000C068C0F38000B0B16FF004002168086117
:1018C000022020772068806900F4407018B120461B
:1018D000FFF7C4FF05E0204600F08CF8204600F03A
:1018E0008AF80020207720680069C0F3C000D8B1D2
:1018F0002068C068C0F3C000B0B16FF00800216874
:101900000861042020772068C06900F0030018B146
:101910002046FFF7A3FF05E0204600F06BF82046C5
:1019200000F069F80020207720680069C0F30010FB
:10193000D8B12068C068C0F30010B0B16FF01000DB
:1019400021680861082020772068C06900F4407091
:1019500018B12046FFF782FF05E0204600F04AF864
:10196000204600F048F8002020772068006900F049
:10197000010058B12068C06800F0010030B16FF07C
:10198000010021680861204600F036F820680069EF
:10199000C0F3C01058B12068C068C0F3C01030B1A7
:1019A0006FF08000216808612046FFF755FF20682E
:1019B0000069C0F3801058B12068C068C0F380107F
:1019C00030B16FF0400021680861204600F02AF82D
:1019D00020680069C0F3401058B12068C068C0F3A7
:1019E000401030B16FF02000216808612046FFF7F9
:1019F00034FF10BD7047704710B504460648844256
:101A000008D00648844205D100BF40210448FFF7B2
:101A100051FA00BF10BD000058020020A0020020B3
:101A200000200140704770472DE9F04704462068C8
:101A300005682068C668206847694FF00008C146FD
:101A400005F00F08B8F1000F0AD105F0200038B1F9
:101A500006F0200020B1204600F06AFABDE8F087C9
:101A6000B8F1000F71D007F0010018B906F49070BA
:101A700000286AD005F0010030B106F4807018B17A
:101A8000E06B40F00100E06305F0040030B107F0C6
:101A9000010018B1E06B40F00200E06305F00200C5
:101AA00030B107F0010018B1E06B40F00400E063D2
:101AB00005F0080048B106F0200010B907F0010059
:101AC00018B1E06B40F00800E063E06B68B305F02C
:101AD000200028B106F0200010B1204600F028FABE
:101AE00020684069C0F38019E06B00F0080010B96D
:101AF000B9F1000F22D0204600F0FAF920684069C1
:101B000000F04000B0B12068406920F0400021683A
:101B10004861606B50B11848616B4863606BFEF7B9
:101B20004DFF10B1606B416B88470CE02046FFF71A
:101B30007AFF08E02046FFF776FF04E02046FFF733
:101B400072FF0020E06389E7FFE705F0800030B115
:101B500006F0800018B1204600F0B8FA7EE705F0E4
:101B6000400030B106F0400018B1204600F0D0F936
:101B700074E700BF72E70000DD1E000810B50446E0
:101B80000CB9012010BDA06900B100E000BF94F8BD
:101B9000390028B9002084F83800204600F028F8E1
:101BA000242084F839002068C06820F4005021689F
:101BB000C860204600F00CFA2068006920F49040CC
:101BC000216808612068406920F02A002168486186
:101BD0002068C06840F400502168C8600020E063BD
:101BE000202084F8390084F83A000020CAE7000079
:101BF00010B586B004462849206888424AD100BF03
:101C000000BF2648806940F00400244988610846E6
:101C1000806900F00400019000BF00BF00BF00BF5A
:101C200000BF0846806940F004008861084680696A
:101C300000F00400019000BF00BF00BF00BF00BF64
:101C40000846806940F4804088610846806900F455
:101C50008040019000BF00BF00BF481502900220E5
:101C60000390012004900320059002A90C48FEF780
:101C700079FF4FF4806002900020039002A9084889
:101C8000FEF770FF2520FFF772F903221146252089
:101C9000FFF77DF906B010BD00380140001002408A
:101CA0000008014010B5034693F83A0020282FD1D0
:101CB00001B10AB9012010BD00BF93F83800012816
:101CC00001D10220F7E7012083F8380000BF9962B4
:101CD0009A85DA850020D863222083F83A0000BF75
:101CE000002083F8380000BF1868C06840F4807096
:101CF0001C68E0601868406940F001001C68606181
:101D00001868C06840F020001C68E0600020D2E73E
:101D10000220D0E71D4A0168914236D11C4909884A
:101D200001F4004189BB1A49098801F4804171B16D
:101D3000184909780A2903D00021154A118024E0A6
:101D40001349098841F40041114A11801DE01149ED
:101D500009780D2906D10E49098841F480410C4AC1
:101D6000118012E00B490978094A1288C2F30D026A
:101D7000094B995406490988491C054A11801146A6
:101D80000988C72901DD0021118070470038014012
:101D90004C0000204E000020F80000202DE9F84FF4
:101DA00004460E46174699464FF0000A94F839004B
:101DB00020285AD106B117B90120BDE8F88F00BF1D
:101DC00094F83800012801D10220F6E7012084F8B8
:101DD000380000BF0020E063212084F83900FFF7BD
:101DE00079F88246A784E784A068B0F5805F04D1C3
:101DF000206910B90025B04602E035464FF00008D2
:101E000000BF002084F8380000BF1BE053460022CA
:101E100080212046CDF8009000F088F908B1032019
:101E2000CBE745B9B8F80000C0F308002168486066
:101E300008F1020803E02878216848606D1CE08CF6
:101E4000401EE084E08C0028E0D15346002240216F
:101E50002046CDF8009000F069F908B10320ACE706
:101E6000202084F839000020A7E70220A5E770476A
:101E700000BFFEE700BFFEE77047000008B5084955
:101E80000968C9084FF47A72B1FBF2F1414300913D
:101E900000BF00BF00994A1E00920029F9D108BD79
:101EA0000000002010B5FFF71BF805F0F7FD012832
:101EB00001D005F055FA10BD7047000010B502487A
:101EC000FFF7CDFC10BD00005802002010B50248FD
:101ED000FFF7C5FC10BD0000A002002070B505464C
:101EE0006C6A0020E085E0842046FFF79CFD70BD11
:101EF0000168C96821F490710268D160016849697C
:101F000021F0010102685161202180F83A107047E8
:101F100010B504462068C06820F040002168C86001
:101F2000202084F839002046FFF7A1FF002010BDD3
:101F300070B5044694F83A00222847D1A068B0F55D
:101F4000805F0CD1206950B90025A66A20684068DE
:101F5000C0F308003080A06A801CA06215E0A56A6A
:101F60000026A068B0F5805F03D0A06828B920697A
:101F700018B920684068287004E02068406800F0C4
:101F80007F002870A06A401CA062E08D401E80B2D5
:101F9000E085C8B92068C06820F020002168C860CA
:101FA0002068C06820F480702168C860206840699B
:101FB00020F0010021684861202084F83A00204682
:101FC000FFF7A8FE002070BD0020FCE70220FAE722
:101FD00070B504462168096921F44051E268114353
:101FE000226811612269A1681143626941EA020510
:101FF0002168C96841F20C62914329432268D1608B
:102000002168496921F44071A26911432268516134
:102010002D4A2168914202D1FFF7E8F801E0FFF76D
:10202000D5F800EBC00101EB001162689200B1FB32
:10203000F2F100EBC00202EB001263689B00B2FBFE
:10204000F3F26423B2FBF3F202EBC20303EB0212DE
:10205000A1EB8201322202EB01116422B1FBF2F109
:1020600001F0F00100EBC00202EB001263689B007C
:10207000B2FBF3F26423B2FBF3F201EB021200EBCA
:10208000C00101EB001163689B00B1FBF3F100EBB1
:10209000C00303EB00136668B600B3FBF6F36426D7
:1020A000B3FBF6F303EBC30606EB0313A1EB8301CB
:1020B000322303EB01116423B1FBF3F101F00F01B3
:1020C00011442268916070BD00380140014691F8CA
:1020D0003900212828D18868B0F5805F0BD10869C4
:1020E00048B90A6A1088C0F308000B685860086A8B
:1020F000801C086205E00B6A581C086218780B689F
:102100005860C88C401E80B2C88458B90868C0683E
:1021100020F080000B68D8600868C06840F040007C
:102120000B68D860002070470220FCE72DE9F041E1
:1021300004460D4617469846069E21E0701CF8B1ED
:102140002EB1FEF7C7FEA0EB0800B04218D92068F8
:10215000C06820F4D0702168C8602068406920F011
:10216000010021684861202084F8390084F83A0091
:1021700000BF002084F8380000BF0320BDE8F081D4
:10218000206800682840A84201D1012000E000201A
:10219000B842D3D00020F1E710B50648FFF744FC61
:1021A00000BF012204490348FFF77CFD0028F8D155
:1021B00010BD0000C00100204E00002000BFFEE75F
:1021C00002480068C0F30220704700000CED00E0F8
:1021D00010B5002804DB0A07130E054A135406E065
:1021E0000A07140E034A00F00F031B1FD45410BD3E
:1021F00000E400E018ED00E000BF704770B5044651
:1022000000204FF0E0210861FFF7F8FAE11704EB36
:102210005171C1F3CF010C4A1180E11704EB5171E8
:10222000CD104FF47A7045434FF0E020006940F044
:1022300002004FF0E021086108464561006940F066
:102240000100086170BD00004400002030B5044664
:10225000002504E04FF47A7000F004F86D1CA542EC
:10226000F8D330BD70B5034600224FF0E026756903
:102270000D4E368803FB06F44FF0E026B16910E0FE
:102280004FF0E026B06988420BD0884202D20E1A85
:10229000324402E02E1A0E4432440146A24200D3D8
:1022A00000E0EDE700BF70BD4400002000BF054A1C
:1022B000126802F04002002AF9D0C2B2014B1B1D85
:1022C0001A607047003801401CB506480121002300
:1022D0008022CDE9001004A1064805F039FB04F086
:1022E00093FD1CBD2C00002073746172745F7461D7
:1022F000736B00004560000800B585B000BF00BFEB
:102300002848806940F04000264988610846806975
:1023100000F04000009000BF00BF00BF00BF00BF42
:102320000846806940F0400088610846806900F0F6
:102330004000009000BF00BF00BF00BF00BF0846C4
:10234000806940F0040088610846806900F004005C
:10235000009000BF00BF00BF082001900020029045
:10236000012003900320049001A90F48FEF7FAFB17
:10237000102001900020029001200390032004907F
:1023800001A90948FEF7EEFB012001900020029010
:10239000022003900320049001A90448FEF7E2FB09
:1023A00005B000BD001002400018014000080140C7
:1023B00070B50446002514B1012022490870214857
:1023C000007848B308212048FEF76CFD50B1102179
:1023D0001D48FEF767FD28B101211C48FEF762FD8C
:1023E000012819D10A20FFF731FF00201549087094
:1023F00008211548FEF756FD00B9012510211248A5
:10240000FEF750FD00B9022501211048FEF74AFDF4
:10241000012815D1032513E008210B48FEF742FDE2
:1024200001280DD110210848FEF73CFD012807D1F5
:1024300001210648FEF736FD10B901200149087058
:10244000284670BD590000200018014000080140D6
:1024500070B5044600260948058840884543002198
:10246000084602F033FD02F003FE00BF02E004481C
:102470000480761CAE42FAD370BD000048020020F2
:102480000008006C10B5044649488471002C45D101
:10249000F020474908804FF4A070488008468088A3
:1024A00045F21051884210D14FF430504049088114
:1024B0004FF4285048814FF42C5088814FF4F0702D
:1024C00008804FF4487048801AE03948808841F607
:1024D000631188420DD12C20354908812B20488179
:1024E0002A2088814FF4F07008804FF448704880AB
:1024F00006E02C202E4908812A2048812B20888143
:102500002B48808845F2103188424CD14FF4A0709E
:10251000274908804FF4F070488044E04FF4A070E1
:1025200023490880F02048800846808845F21051F1
:10253000884210D14FF430501D4908814FF4285083
:1025400048814FF42C5088814FF4487008804FF434
:10255000F07048801AE01648808841F6631188427E
:102560000DD12C20124908812A2048812B208881F6
:102570004FF4487008804FF4F070488006E02C203B
:102580000B4908812A2048812B20888108488088AF
:1025900045F21031884206D14FF4F07004490880AA
:1025A0004FF4A0704880002002F078FB10BD0000BE
:1025B0004802002010B5CF2002F04EFD002002F0AE
:1025C0003FFDC12002F03CFD302002F039FDED203E
:1025D00002F042FD642002F033FD032002F030FDE2
:1025E000122002F02DFD812002F02AFDE82002F0E9
:1025F00033FD852002F024FD102002F021FD7A2019
:1026000002F01EFDCB2002F027FD392002F018FD5C
:102610002C2002F015FD002002F012FD342002F003
:102620000FFD022002F00CFDF72002F015FD202026
:1026300002F006FDEA2002F00FFD002002F000FD8E
:10264000002002F0FDFCC02002F006FD1B2002F07D
:10265000F7FCC12002F000FD012002F0F1FCC520D2
:1026600002F0FAFC302002F0EBFC302002F0E8FC33
:10267000C72002F0F1FCB72002F0E2FC362002F0A5
:10268000EBFC482002F0DCFC3A2002F0E5FC55208F
:1026900002F0D6FCB12002F0DFFC002002F0D0FCFA
:1026A0001A2002F0CDFCB62002F0D6FC0A2002F07F
:1026B000C7FCA22002F0C4FCF22002F0CDFC0020F6
:1026C00002F0BEFC262002F0C7FC012002F0B8FC9C
:1026D000E02002F0C1FC0F2002F0B2FC2A2002F040
:1026E000AFFC282002F0ACFC082002F0A9FC0E2070
:1026F00002F0A6FC082002F0A3FC542002F0A0FC8B
:10270000A92002F09DFC432002F09AFC0A2002F06E
:1027100097FC0F2002F094FC002002F091FC0020B6
:1027200002F08EFC002002F08BFC002002F088FCFE
:10273000E12002F091FC002002F082FC152002F062
:102740007FFC172002F07CFC072002F079FC1120AE
:1027500002F076FC062002F073FC2B2002F070FCE5
:10276000562002F06DFC3C2002F06AFC052002F0CD
:1027700067FC102002F064FC0F2002F061FC3F2097
:1027800002F05EFC3F2002F05BFC0F2002F058FCE0
:102790002B2002F061FC002002F052FC002002F02D
:1027A0004FFC012002F04CFC3F2002F049FC2A20A3
:1027B00002F052FC002002F043FC002002F040FC3A
:1027C000002002F03DFCEF2002F03AFC112002F064
:1027D00043FC7820FFF73AFD292002F03DFC10BDB4
:1027E00010B5ED2002F038FC012002F029FCFE209B
:1027F00002F026FCEE2002F02FFCDE2002F020FC8E
:10280000212002F01DFCF12002F026FC012002F044
:1028100017FCDF2002F020FC102002F011FCC42085
:1028200002F01AFC8F2002F00BFCC62002F014FC10
:10283000002002F005FCE22002F002FCE22002F09F
:10284000FFFBE22002F0FCFBBF2002F005FCAA2007
:1028500002F0F6FBB02002F0FFFB0D2002F0F0FBCF
:10286000002002F0EDFB0D2002F0EAFB002002F058
:10287000E7FB112002F0E4FB002002F0E1FB19204D
:1028800002F0DEFB002002F0DBFB212002F0D8FB8F
:10289000002002F0D5FB2D2002F0D2FB002002F038
:1028A000CFFB3D2002F0CCFB002002F0C9FB5D20F5
:1028B00002F0C6FB002002F0C3FB5D2002F0C0FB6B
:1028C000002002F0BDFBB12002F0C6FB802002F028
:1028D000B7FB002002F0B4FB8B2002F0B1FB00201C
:1028E00002F0AEFB962002F0ABFB002002F0A8FB4A
:1028F000B22002F0B1FB002002F0A2FB002002F0A7
:102900009FFB022002F09CFB002002F099FB0320B9
:1029100002F096FB002002F093FBB32002F09CFB38
:10292000002002F08DFB002002F08AFB002002F064
:1029300087FB002002F084FB002002F081FB0020D6
:1029400002F07EFB002002F07BFB002002F078FB0F
:10295000002002F075FB002002F072FB002002F064
:102960006FFB002002F06CFB002002F069FB0020EE
:1029700002F066FB002002F063FB002002F060FB27
:10298000002002F05DFB002002F05AFB002002F064
:1029900057FB002002F054FB002002F051FB002006
:1029A00002F04EFB002002F04BFB002002F048FB3F
:1029B000B42002F051FB8B2002F042FB002002F019
:1029C0003FFB962002F03CFB002002F039FBA120E7
:1029D00002F036FB002002F033FBB52002F03CFB96
:1029E000022002F02DFB002002F02AFB032002F05F
:1029F00027FB002002F024FB042002F021FB002032
:102A000002F01EFBB62002F027FB002002F018FBAC
:102A1000002002F015FBB72002F01EFB002002F0A0
:102A20000FFB002002F00CFB3F2002F009FB00200E
:102A300002F006FB5E2002F003FB002002F000FB28
:102A4000642002F0FDFA002002F0FAFA8C2002F075
:102A5000F7FA002002F0F4FAAC2002F0F1FA0020BC
:102A600002F0EEFADC2002F0EBFA002002F0E8FAC5
:102A7000702002F0E5FA002002F0E2FA902002F065
:102A8000DFFA002002F0DCFAEB2002F0D9FA002095
:102A900002F0D6FADC2002F0D3FA002002F0D0FADD
:102AA000B82002F0D9FA002002F0CAFA002002F0A1
:102AB000C7FA002002F0C4FA002002F0C1FA002098
:102AC00002F0BEFA002002F0BBFA002002F0B8FAD1
:102AD000002002F0B5FABA2002F0BEFA242002F07B
:102AE000AFFA002002F0ACFA002002F0A9FA0020B0
:102AF00002F0A6FAC12002F0AFFA202002F0A0FAFC
:102B0000002002F09DFA542002F09AFA002002F010
:102B100097FAFF2002F094FA002002F091FAC22006
:102B200002F09AFA0A2002F08BFA002002F088FAEA
:102B3000042002F085FA002002F082FAC32002F09D
:102B40008BFA3C2002F07CFA002002F079FA3A205D
:102B500002F076FA002002F073FA392002F070FADF
:102B6000002002F06DFA372002F06AFA002002F02D
:102B700067FA3C2002F064FA002002F061FA362085
:102B800002F05EFA002002F05BFA322002F058FAFE
:102B9000002002F055FA2F2002F052FA002002F035
:102BA0004FFA2C2002F04CFA002002F049FA2920BA
:102BB00002F046FA002002F043FA262002F040FA22
:102BC000002002F03DFA242002F03AFA002002F040
:102BD00037FA242002F034FA002002F031FA2320E0
:102BE00002F02EFA002002F02BFA3C2002F028FA24
:102BF000002002F025FA362002F022FA002002F02E
:102C00001FFA322002F01CFA002002F019FA2F20DD
:102C100002F016FA002002F013FA2C2002F010FA4B
:102C2000002002F00DFA292002F00AFA002002F03A
:102C300007FA262002F004FA002002F001FA24200C
:102C400002F0FEF9002002F0FBF9242002F0F8F96E
:102C5000002002F0F5F9232002F0F2F9002002F042
:102C6000EFF9C42002F0F8F9622002F0E9F900203F
:102C700002F0E6F9052002F0E3F9002002F0E0F9A5
:102C8000842002F0DDF9002002F0DAF9F02002F0F1
:102C9000D7F9002002F0D4F9182002F0D1F9002071
:102CA00002F0CEF9A42002F0CBF9002002F0C8F91E
:102CB000182002F0C5F9002002F0C2F9502002F0FD
:102CC000BFF9002002F0BCF90C2002F0B9F9002095
:102CD00002F0B6F9172002F0B3F9002002F0B0F9C3
:102CE000952002F0ADF9002002F0AAF9F32002F0DD
:102CF000A7F9002002F0A4F9E62002F0A1F90020D3
:102D000002F09EF9C52002F0A7F9322002F098F9EE
:102D1000002002F095F9442002F092F9002002F020
:102D20008FF9652002F08CF9002002F089F97620F5
:102D300002F086F9002002F083F9882002F080F981
:102D4000002002F07DF9C62002F086F9202002F072
:102D500077F9002002F074F9172002F071F90020D1
:102D600002F06EF9012002F06BF9002002F068F920
:102D7000C72002F071F9002002F062F9002002F091
:102D80005FF9002002F05CF9002002F059F9C82038
:102D900002F062F9002002F053F9002002F050F92D
:102DA000002002F04DF9002002F04AF9C92002F09B
:102DB00053F9002002F044F9002002F041F900200C
:102DC00002F03EF9002002F03BF9002002F038F951
:102DD000002002F035F9002002F032F9002002F064
:102DE0002FF9002002F02CF9002002F029F9002030
:102DF00002F026F9002002F023F9002002F020F969
:102E0000002002F01DF9002002F01AF9002002F063
:102E100017F9E02002F020F9162002F011F9002045
:102E200002F00EF91C2002F00BF9002002F008F964
:102E3000212002F005F9002002F002F9362002F00C
:102E4000FFF8002002F0FCF8462002F0F9F800201C
:102E500002F0F6F8522002F0F3F8002002F0F0F849
:102E6000642002F0EDF8002002F0EAF87A2002F087
:102E7000E7F8002002F0E4F88B2002F0E1F80020EF
:102E800002F0DEF8992002F0DBF8002002F0D8F81A
:102E9000A82002F0D5F8002002F0D2F8B92002F004
:102EA000CFF8002002F0CCF8C42002F0C9F80020CE
:102EB00002F0C6F8CA2002F0C3F8002002F0C0F801
:102EC000D22002F0BDF8002002F0BAF8D92002F0BA
:102ED000B7F8002002F0B4F8E02002F0B1F80020CA
:102EE00002F0AEF8F32002F0ABF8002002F0A8F8F0
:102EF000E12002F0B1F8162002F0A2F8002002F062
:102F00009FF81C2002F09CF8002002F099F8222083
:102F100002F096F8002002F093F8362002F090F8C4
:102F2000002002F08DF8452002F08AF8002002F01F
:102F300087F8522002F084F8002002F081F8642023
:102F400002F07EF8002002F07BF87A2002F078F898
:102F5000002002F075F88B2002F072F8002002F0D9
:102F60006FF8992002F06CF8002002F069F8A820B0
:102F700002F066F8002002F063F8B92002F060F871
:102F8000002002F05DF8C42002F05AF8002002F0A0
:102F900057F8CA2002F054F8002002F051F8D2206D
:102FA00002F04EF8002002F04BF8D82002F048F86A
:102FB000002002F045F8E02002F042F8002002F084
:102FC0003FF8F32002F03CF8002002F039F8E2204C
:102FD00002F042F8052002F033F8002002F030F849
:102FE0000B2002F02DF8002002F02AF81B2002F03E
:102FF00027F8002002F024F8342002F021F8002005
:1030000002F01EF8442002F01BF8002002F018F82D
:103010004F2002F015F8002002F012F8612002F0B3
:103020000FF8002002F00CF8792002F009F80020D7
:1030300002F006F8882002F003F8002002F000F801
:10304000972001F0FDFF002001F0FAFFA62001F01B
:10305000F7FF002001F0F4FFB72001F0F1FF00209E
:1030600001F0EEFFC22001F0EBFF002001F0E8FFCD
:10307000C72001F0E5FF002001F0E2FFD12001F0C0
:10308000DFFF002001F0DCFFD62001F0D9FF002097
:1030900001F0D6FFDD2001F0D3FF002001F0D0FFCA
:1030A000F32001F0CDFF002001F0CAFFE32001F082
:1030B000D3FF052001F0C4FF002001F0C1FF0A206A
:1030C00001F0BEFF002001F0BBFF1C2001F0B8FFA3
:1030D000002001F0B5FF332001F0B2FF002001F025
:1030E000AFFF442001F0ACFF002001F0A9FF502009
:1030F00001F0A6FF002001F0A3FF622001F0A0FF75
:10310000002001F09DFF782001F09AFF002001F0DF
:1031100097FF882001F094FF002001F091FF972095
:1031200001F08EFF002001F08BFFA62001F088FF48
:10313000002001F085FFB72001F082FF002001F0A0
:103140007FFFC22001F07CFF002001F079FFC72043
:1031500001F076FF002001F073FFD12001F070FF35
:10316000002001F06DFFD52001F06AFF002001F082
:1031700067FFDD2001F064FF002001F061FFF32014
:1031800001F05EFF002001F05BFFE42001F064FF2E
:10319000012001F055FF002001F052FF012001F055
:1031A0004FFF002001F04CFF022001F049FF0020FA
:1031B00001F046FF2A2001F043FF002001F040FF0C
:1031C0003C2001F03DFF002001F03AFF4B2001F0D0
:1031D00037FF002001F034FF5D2001F031FF0020B7
:1031E00001F02EFF742001F02BFF002001F028FFDA
:1031F000842001F025FF002001F022FF932001F040
:103200001FFF002001F01CFFA22001F019FF002089
:1032100001F016FFB32001F013FF002001F010FFB2
:10322000BE2001F00DFF002001F00AFFC42001F0D4
:1032300007FF002001F004FFCD2001F001FF002076
:1032400001F0FEFED32001F0FBFE002001F0F8FEAD
:10325000DD2001F0F5FE002001F0F2FEF32001F088
:10326000EFFE002001F0ECFEE52001F0F5FE00206D
:1032700001F0E6FE002001F0E3FE002001F0E0FE98
:10328000002001F0DDFE022001F0DAFE002001F056
:10329000D7FE292001F0D4FE002001F0D1FE3C2011
:1032A00001F0CEFE002001F0CBFE4B2001F0C8FE65
:1032B000002001F0C5FE5D2001F0C2FE002001F0FB
:1032C000BFFE742001F0BCFE002001F0B9FE842096
:1032D00001F0B6FE002001F0B3FE932001F0B0FE35
:1032E000002001F0ADFEA22001F0AAFE002001F0B6
:1032F000A7FEB32001F0A4FE002001F0A1FEBE2035
:1033000001F09EFE002001F09BFEC42001F098FE1B
:10331000002001F095FECD2001F092FE002001F08A
:103320008FFED32001F08CFE002001F089FEDC200E
:1033300001F086FE002001F083FEF32001F080FE04
:10334000002001F07DFEE62001F086FE112001F054
:1033500077FE002001F074FE342001F071FE0020A1
:1033600001F06EFE562001F06BFE002001F068FEB9
:10337000762001F065FE002001F062FE772001F06A
:103380005FFE002001F05CFE662001F059FE002087
:1033900001F056FE882001F053FE002001F050FE9F
:1033A000992001F04DFE002001F04AFEBB2001F003
:1033B00047FE002001F044FE992001F041FE00206C
:1033C00001F03EFE662001F03BFE002001F038FED9
:1033D000552001F035FE002001F032FE552001F0AD
:1033E0002FFE002001F02CFE452001F029FE0020D8
:1033F00001F026FE432001F023FE002001F020FE14
:10340000442001F01DFE002001F01AFEE72001F02B
:1034100023FE322001F014FE002001F011FE5520A1
:1034200001F00EFE002001F00BFE762001F008FEF8
:10343000002001F005FE662001F002FE002001F0F0
:10344000FFFD672001F0FCFD002001F0F9FD672081
:1034500001F0F6FD002001F0F3FD872001F0F0FD02
:10346000002001F0EDFD992001F0EAFD002001F0BF
:10347000E7FDBB2001F0E4FD002001F0E1FD992013
:1034800001F0DEFD002001F0DBFD772001F0D8FD2A
:10349000002001F0D5FD442001F0D2FD002001F014
:1034A000CFFD562001F0CCFD002001F0C9FD232006
:1034B00001F0C6FD002001F0C3FD332001F0C0FD86
:1034C000002001F0BDFD452001F0BAFD002001F013
:1034D000B7FDE82001F0C0FD002001F0B1FD0020A3
:1034E00001F0AEFD992001F0ABFD002001F0A8FD38
:1034F000872001F0A5FD002001F0A2FD882001F049
:103500009FFD002001F09CFD772001F099FD002037
:1035100001F096FD662001F093FD002001F090FD82
:10352000882001F08DFD002001F08AFDAA2001F025
:1035300087FD002001F084FDBB2001F081FD00200B
:1035400001F07EFD992001F07BFD002001F078FD67
:10355000662001F075FD002001F072FD552001F09C
:103560006FFD002001F06CFD552001F069FD002089
:1035700001F066FD442001F063FD002001F060FDD4
:10358000442001F05DFD002001F05AFD552001F0BE
:1035900057FD002001F054FDE92001F05DFDAA2057
:1035A00001F04EFD002001F04BFD002001F048FD30
:1035B000002001F045FD002001F04EFDAA2001F0A1
:1035C0003FFDCF2001F048FD002001F039FD002033
:1035D00001F036FD002001F033FD002001F030FD48
:1035E000002001F02DFD002001F02AFD002001F057
:1035F00027FD002001F024FD002001F021FD002026
:1036000001F01EFD002001F01BFD002001F018FD5F
:10361000002001F015FD002001F012FD002001F056
:103620000FFD002001F00CFD002001F009FDF0204D
:1036300001F012FD002001F003FD502001F000FD1B
:10364000002001F0FDFC002001F0FAFC002001F058
:10365000F7FCF32001F000FD002001F0F1FCF9205F
:1036600001F0FAFC062001F0EBFC102001F0E8FC70
:10367000292001F0E5FC002001F0E2FC3A2001F0F5
:10368000EBFC552001F0DCFC112001F0E5FC64208E
:10369000FEF7DCFD292001F0DFFC352001F0DCFC29
:1036A000002001F0CDFC512001F0D6FCFF2001F0FC
:1036B000C7FC532001F0D0FC2C2001F0C1FC5520A8
:1036C00001F0CAFC822001F0BBFC2C2001F0C4FCFC
:1036D00010BD10B555214FF4704001F0D3FCAA2164
:1036E0004FF2010001F0CEFC52214FF2020001F036
:1036F000C9FC08214FF2030001F0C4FC01214FF284
:10370000040001F0BFFC0D214FF4304001F0BAFC81
:103710000D214BF2010001F0B5FC0D214BF202002E
:1037200001F0B0FC34214FF4364001F0ABFC342101
:103730004BF2016001F0A6FC34214BF2026001F073
:10374000A1FC0D214FF4314001F09CFC0D214BF206
:10375000011001F097FC0D214BF2021001F092FCD8
:1037600034214FF4374001F08DFC34214BF20170CD
:1037700001F088FC34214BF2027001F083FC00213F
:103780004FF4324001F07EFC00214BF2012001F0A9
:1037900079FC00214BF2022001F074FC24214FF44B
:1037A000384001F06FFC24214BF6010001F06AFC67
:1037B00024214BF6020001F065FC01214FF43F404B
:1037C00001F060FC0F214FF4334001F05BFC0F214E
:1037D0004BF2013001F056FC0F214BF2023001F0A8
:1037E00051FC34214FF4394001F04CFC34214BF6AC
:1037F000011001F047FC34214BF6021001F042FCAD
:1038000008214FF4354001F03DFC08214BF20150F6
:1038100001F038FC08214BF2025001F033FC032187
:103820004FF4424001F02EFC24214FF43A4001F0C5
:1038300029FC24214BF6012001F024FC24214BF625
:10384000022001F01FFC00214FF43C4001F01AFC63
:1038500078214BF6014001F015FC00214BF60240A7
:1038600001F010FC00214FF43D4001F00BFC7821E9
:103870004BF6015001F006FC00214BF6025001F01E
:1038800001FC00214FF43E4001F0FCFB64214BF6AB
:10389000016001F0F7FB00214FF4514001F0F2FB11
:1038A00033214DF2011001F0EDFB00214DF2021029
:1038B00001F0E8FB34214DF2031001F0E3FB00219D
:1038C0004DF2041001F0DEFB3A214DF2051001F03B
:1038D000D9FB00214DF2061001F0D4FB4A214DF234
:1038E000071001F0CFFB00214DF2081001F0CAFBD8
:1038F0005C214DF2091001F0C5FB00214DF20A10C8
:1039000001F0C0FB81214DF20B1001F0BBFB002147
:103910004DF20C1001F0B6FBA6214DF20D1001F096
:10392000B1FB00214DF20E1001F0ACFBE5214DF290
:103930000F1001F0A7FB01214DF2101001F0A2FBC6
:1039400013214DF2111001F09DFB01214DF21210D7
:1039500001F098FB54214DF2131001F093FB01216B
:103960004DF2141001F08EFB82214DF2151001F082
:1039700089FB01214DF2161001F084FBCA214DF2A2
:10398000171001F07FFB02214DF2181001F07AFBB5
:1039900000214DF2191001F075FB02214DF21A10B1
:1039A00001F070FB01214DF21B1001F06BFB0221B5
:1039B0004DF21C1001F066FB34214DF21D1001F098
:1039C00061FB02214DF21E1001F05CFB67214DF2FC
:1039D0001F1001F057FB02214DF2201001F052FBA5
:1039E00084214DF2211001F04DFB02214DF22210F5
:1039F00001F048FBA4214DF2231001F043FB02210A
:103A00004DF2241001F03EFBB7214DF2251001F0DC
:103A100039FB02214DF2261001F034FBCF214DF28B
:103A2000271001F02FFB02214DF2281001F02AFB94
:103A3000DE214DF2291001F025FB02214DF22A1062
:103A400001F020FBF2214DF22B1001F01BFB0221B3
:103A50004DF22C1001F016FBFE214DF22D1001F05D
:103A600011FB03214DF22E1001F00CFB10214DF241
:103A70002F1001F007FB03214DF2301001F002FB83
:103A800033214DF2311001F0FDFA03214DF23210D5
:103A900001F0F8FA6D214DF2331001F0F3FA002134
:103AA0004FF4524001F0EEFA33214DF2012001F0C3
:103AB000E9FA00214DF2022001F0E4FA34214DF23E
:103AC000032001F0DFFA00214DF2042001F0DAFAC0
:103AD0003A214DF2052001F0D5FA00214DF20620E1
:103AE00001F0D0FA4A214DF2072001F0CBFA002173
:103AF0004DF2082001F0C6FA5C214DF2092001F0D8
:103B0000C1FA00214DF20A2001F0BCFA81214DF2E8
:103B10000B2001F0B7FA00214DF20C2001F0B2FAAF
:103B2000A6214DF20D2001F0ADFA00214DF20E203C
:103B300001F0A8FAE5214DF20F2001F0A3FA0121CE
:103B40004DF2102001F09EFA13214DF2112001F0E8
:103B500099FA01214DF2122001F094FA54214DF20C
:103B6000132001F08FFA01214DF2142001F08AFA9E
:103B700082214DF2152001F085FA01214DF2162027
:103B800001F080FACA214DF2172001F07BFA0221E0
:103B90004DF2182001F076FA00214DF2192001F0C3
:103BA00071FA02214DF21A2001F06CFA01214DF256
:103BB0001B2001F067FA02214DF21C2001F062FA8D
:103BC00034214DF21D2001F05DFA02214DF21E203C
:103BD00001F058FA67214DF21F2001F053FA02213B
:103BE0004DF2202001F04EFA84214DF2212001F007
:103BF00049FA02214DF2222001F044FAA4214DF2AB
:103C0000232001F03FFA02214DF2242001F03AFA7C
:103C1000B7214DF2252001F035FA02214DF2262080
:103C200001F030FACF214DF2272001F02BFA0221CA
:103C30004DF2282001F026FADE214DF2292001F074
:103C400021FA02214DF22A2001F01CFAF2214DF254
:103C50002B2001F017FA02214DF22C2001F012FA6C
:103C6000FE214DF22D2001F00DFA03214DF22E2000
:103C700001F008FA10214DF22F2001F003FA032180
:103C80004DF2302001F0FEF933214DF2312001F0E8
:103C9000F9F903214DF2322001F0F4F96D214DF2D2
:103CA000332001F0EFF900214FF4534001F0EAF91D
:103CB00033214DF2013001F0E5F900214DF20230DF
:103CC00001F0E0F934214DF2033001F0DBF900217D
:103CD0004DF2043001F0D6F93A214DF2053001F0F1
:103CE000D1F900214DF2063001F0CCF94A214DF214
:103CF000073001F0C7F900214DF2083001F0C2F998
:103D00005C214DF2093001F0BDF900214DF20A307D
:103D100001F0B8F981214DF20B3001F0B3F9002127
:103D20004DF20C3001F0AEF9A6214DF20D3001F04C
:103D3000A9F900214DF20E3001F0A4F9E5214DF270
:103D40000F3001F09FF901214DF2103001F09AF986
:103D500013214DF2113001F095F901214DF212308D
:103D600001F090F954214DF2133001F08BF901214B
:103D70004DF2143001F086F982214DF2153001F038
:103D800081F901214DF2163001F07CF9CA214DF282
:103D9000173001F077F902214DF2183001F072F975
:103DA00000214DF2193001F06DF902214DF21A3067
:103DB00001F068F901214DF21B3001F063F9022195
:103DC0004DF21C3001F05EF934214DF21D3001F04E
:103DD00059F902214DF21E3001F054F967214DF2DC
:103DE0001F3001F04FF902214DF2203001F04AF965
:103DF00084214DF2213001F045F902214DF22230AB
:103E000001F040F9A4214DF2233001F03BF90221E9
:103E10004DF2243001F036F9B7214DF2253001F092
:103E200031F902214DF2263001F02CF9CF214DF26B
:103E3000273001F027F902214DF2283001F022F954
:103E4000DE214DF2293001F01DF902214DF22A3018
:103E500001F018F9F2214DF22B3001F013F9022193
:103E60004DF22C3001F00EF9FE214DF22D3001F013
:103E700009F903214DF22E3001F004F910214DF221
:103E80002F3001F0FFF803214DF2303001F0FAF845
:103E900033214DF2313001F0F5F803214DF232308B
:103EA00001F0F0F86D214DF2333001F0EBF8002114
:103EB0004FF4544001F0E6F833214DF2014001F097
:103EC000E1F800214DF2024001F0DCF834214DF21E
:103ED000034001F0D7F800214DF2044001F0D2F880
:103EE0003A214DF2054001F0CDF800214DF2064097
:103EF00001F0C8F84A214DF2074001F0C3F8002153
:103F00004DF2084001F0BEF85C214DF2094001F08D
:103F1000B9F800214DF20A4001F0B4F881214DF2C8
:103F20000B4001F0AFF800214DF20C4001F0AAF86F
:103F3000A6214DF20D4001F0A5F800214DF20E40F2
:103F400001F0A0F8E5214DF20F4001F09BF80121AE
:103F50004DF2104001F096F813214DF2114001F09E
:103F600091F801214DF2124001F08CF854214DF2EC
:103F7000134001F087F801214DF2144001F082F85E
:103F800082214DF2154001F07DF801214DF21640DD
:103F900001F078F8CA214DF2174001F073F80221C0
:103FA0004DF2184001F06EF800214DF2194001F079
:103FB00069F802214DF21A4001F064F801214DF236
:103FC0001B4001F05FF802214DF21C4001F05AF84D
:103FD00034214DF21D4001F055F802214DF21E40F2
:103FE00001F050F867214DF21F4001F04BF802211B
:103FF0004DF2204001F046F884214DF2214001F0BD
:1040000041F802214DF2224001F03CF8A4214DF28A
:10401000234001F037F802214DF2244001F032F83C
:10402000B7214DF2254001F02DF802214DF2264036
:1040300001F028F8CF214DF2274001F023F80221AA
:104040004DF2284001F01EF8DE214DF2294001F02A
:1040500019F802214DF22A4001F014F8F2214DF234
:104060002B4001F00FF802214DF22C4001F00AF82C
:10407000FE214DF22D4001F005F803214DF22E40B6
:1040800001F000F810214DF22F4000F0FBFF03215A
:104090004DF2304000F0F6FF33214DF2314000F098
:1040A000F1FF03214DF2324000F0ECFF6D214DF2A3
:1040B000334000F0E7FF00214FF4554000F0E2FFED
:1040C00033214DF2015000F0DDFF00214DF202508E
:1040D00000F0D8FF34214DF2035000F0D3FF00214F
:1040E0004DF2045000F0CEFF3A214DF2055000F0A1
:1040F000C9FF00214DF2065000F0C4FF4A214DF2E5
:10410000075000F0BFFF00214DF2085000F0BAFF49
:104110005C214DF2095000F0B5FF00214DF20A502C
:1041200000F0B0FF81214DF20B5000F0ABFF0021F9
:104130004DF20C5000F0A6FFA6214DF20D5000F0FC
:10414000A1FF00214DF20E5000F09CFFE5214DF241
:104150000F5000F097FF01214DF2105000F092FF38
:1041600013214DF2115000F08DFF01214DF212503C
:1041700000F088FF54214DF2135000F083FF01211D
:104180004DF2145000F07EFF82214DF2155000F0E8
:1041900079FF01214DF2165000F074FFCA214DF253
:1041A000175000F06FFF02214DF2185000F06AFF27
:1041B00000214DF2195000F065FF02214DF21A5016
:1041C00000F060FF01214DF21B5000F05BFF022167
:1041D0004DF21C5000F056FF34214DF21D5000F0FE
:1041E00051FF02214DF21E5000F04CFF67214DF2AD
:1041F0001F5000F047FF02214DF2205000F042FF17
:1042000084214DF2215000F03DFF02214DF2225059
:1042100000F038FFA4214DF2235000F033FF0221BB
:104220004DF2245000F02EFFB7214DF2255000F042
:1042300029FF02214DF2265000F024FFCF214DF23C
:10424000275000F01FFF02214DF2285000F01AFF06
:10425000DE214DF2295000F015FF02214DF22A50C7
:1042600000F010FFF2214DF22B5000F00BFF022165
:104270004DF22C5000F006FFFE214DF22D5000F0C3
:1042800001FF03214DF22E5000F0FCFE10214DF2F3
:104290002F5000F0F7FE03214DF2305000F0F2FEF7
:1042A00033214DF2315000F0EDFE03214DF232503A
:1042B00000F0E8FE6D214DF2335000F0E3FE0021E6
:1042C0004FF4564000F0DEFE33214DF2016000F065
:1042D000D9FE00214DF2026000F0D4FE34214DF2EF
:1042E000036000F0CFFE00214DF2046000F0CAFE32
:1042F0003A214DF2056000F0C5FE00214DF2066046
:1043000000F0C0FE4A214DF2076000F0BBFE002124
:104310004DF2086000F0B6FE5C214DF2096000F03D
:10432000B1FE00214DF20A6000F0ACFE81214DF299
:104330000B6000F0A7FE00214DF20C6000F0A2FE21
:10434000A6214DF20D6000F09DFE00214DF20E60A1
:1043500000F098FEE5214DF20F6000F093FE012180
:104360004DF2106000F08EFE13214DF2116000F04E
:1043700089FE01214DF2126000F084FE54214DF2BD
:10438000136000F07FFE01214DF2146000F07AFE10
:1043900082214DF2156000F075FE01214DF216608C
:1043A00000F070FECA214DF2176000F06BFE022192
:1043B0004DF2186000F066FE00214DF2196000F029
:1043C00061FE02214DF21A6000F05CFE01214DF207
:1043D0001B6000F057FE02214DF21C6000F052FEFF
:1043E00034214DF21D6000F04DFE02214DF21E60A1
:1043F00000F048FE67214DF21F6000F043FE0221ED
:104400004DF2206000F03EFE84214DF2216000F06C
:1044100039FE02214DF2226000F034FEA4214DF25B
:10442000236000F02FFE02214DF2246000F02AFEEE
:10443000B7214DF2256000F025FE02214DF22660E5
:1044400000F020FECF214DF2276000F01BFE02217C
:104450004DF2286000F016FEDE214DF2296000F0DA
:1044600011FE02214DF22A6000F00CFEF2214DF205
:104470002B6000F007FE02214DF22C6000F002FEDE
:10448000FE214DF22D6000F0FDFD03214DF22E6066
:1044900000F0F8FD10214DF22F6000F0F3FD032134
:1044A0004DF2306000F0EEFD33214DF2316000F04E
:1044B000E9FD03214DF2326000F0E4FD6D214DF283
:1044C000336000F0DFFD55214FF4704000F0DAFD5D
:1044D000AA214FF2010000F0D5FD52214FF2020057
:1044E00000F0D0FD08214FF2030000F0CBFD0021C9
:1044F0004FF2040000F0C6FDCC214FF4314000F033
:10450000C1FD00214BF2011000F0BCFD05214FF46C
:10451000364000F0B7FD70214FF4374000F0B2FD97
:1045200070214BF2017000F0ADFD01214FF43840D5
:1045300000F0A8FD03214BF6010000F0A3FD0321CC
:104540004BF6020000F09EFD03214BF6030000F045
:1045500099FD02214FF43C4000F094FD00214BF600
:10456000014000F08FFD00214BF6024000F08AFD73
:10457000D0214FF4494000F085FD02214CF6011096
:1045800000F080FD50214CF6021000F07BFD502120
:104590004CF6031000F076FD50214CF6041000F0AC
:1045A00071FD00214FF4545000F06CFD55214FF483
:1045B000685000F067FD4FF4885000F04DFD782002
:1045C000FDF750FE4FF4245000F046FD10BD10B52D
:1045D000E22000F041FD1D2000F032FD022000F03D
:1045E0002FFD042000F02CFD6420FDF73BFEE020B1
:1045F00000F032FD012000F023FD0A20FDF726FE29
:10460000E02000F029FD032000F01AFD0C20FDF74A
:104610001DFE012000F020FD0A20FDF717FEE62018
:1046200000F01AFD2F2000F00BFDFF2000F008FD28
:10463000FF2000F005FDB02000F00EFD202000F06E
:10464000FFFC002000F0FCFC032000F0F9FC40F22D
:104650001F3000F0F5FC012000F0F2FC40F2DF100A
:1046600000F0EEFC002000F0EBFCB42000F0F4FCC5
:10467000042000F0E5FC40F21F4000F0E1FC0020C7
:1046800000F0DEFC2E2000F0DBFC002000F0D8FC67
:10469000002000F0D5FC002000F0D2FC002000F04B
:1046A000CFFCB62000F0D8FC022000F0C9FC4FF48B
:1046B000037000F0C5FC002000F0C2FC172000F0E1
:1046C000BFFC152000F0BCFC002000F0B9FC00206D
:1046D00000F0B6FCF02000F0BFFC032000F0B0FCBE
:1046E000292000F0B9FCD02000F0B6FC002000F03A
:1046F000A7FCBE2000F0B0FC052000F0A1FCFE20CD
:1047000000F09EFC012000F09BFC002000F098FCD3
:10471000002000F095FC002000F092FCB82000F092
:104720009BFC032000F08CFC012000F089FCBA20E7
:1047300000F092FC012000F083FC10BD10B51120A8
:1047400000F08AFC7820FDF781FD362000F084FC23
:10475000002000F075FC3A2000F07EFC052000F0FF
:104760006FFCB22000F078FC0C2000F069FC0C20FB
:1047700000F066FC002000F063FC332000F060FCD9
:10478000332000F05DFCB72000F066FC352000F01F
:1047900057FCBB2000F060FC322000F051FCC02030
:1047A00000F05AFC0C2000F04BFCC22000F054FC3E
:1047B000012000F045FCC32000F04EFC102000F06A
:1047C0003FFCC42000F048FC202000F039FCC6204B
:1047D00000F042FC0F2000F033FCD02000F03CFC45
:1047E000A42000F02DFCA12000F02AFCE02000F025
:1047F00033FCD02000F024FC002000F021FC02203B
:1048000000F01EFC072000F01BFC0A2000F018FC42
:10481000282000F015FC322000F012FC442000F0AB
:104820000FFC422000F00CFC062000F009FC0E20DA
:1048300000F006FC122000F003FC142000F000FC45
:10484000172000F0FDFBE12000F006FCD02000F076
:10485000F7FB002000F0F4FB022000F0F1FB072042
:1048600000F0EEFB0A2000F0EBFB282000F0E8FB54
:10487000312000F0E5FB542000F0E2FB472000F07F
:10488000DFFB0E2000F0DCFB1C2000F0D9FB172022
:1048900000F0D6FB1B2000F0D3FB1E2000F0D0FB65
:1048A0002A2000F0D9FB002000F0CAFB002000F015
:1048B000C7FB002000F0C4FBEF2000F0C1FB2B2061
:1048C00000F0CAFB002000F0BBFB002000F0B8FBAA
:1048D000012000F0B5FB3F2000F0B2FB292000F0E2
:1048E000BBFB10BD00B593B000BF00BFDC488069C2
:1048F00040F48070DA4988610846806900F480706D
:10490000009000BF00BF00BF00BF00BF0846806925
:1049100040F0200088610846806900F02000009087
:1049200000BF00BF00BF00BF00BF0846806940F065
:10493000200088610846806900F02000009000BFD8
:1049400000BF00BF00BF00BF0846806940F4807010
:1049500088610846806900F48070009000BF00BF45
:1049600000BF00BF00BF0846806940F008008861B2
:104970000846806900F00800009000BF00BF00BF3B
:1049800088140F90022010900120119003201290A3
:104990000FA9B448FCF7E6F820200F900FA9B24801
:1049A000FCF7E0F810200F900FA9AF48FCF7DAF8F9
:1049B00001200F900FA9AB48FCF7D4F801200F900D
:1049C00010900FA9A948FCF7CDF84FF02040A84956
:1049D0000860A8484860062088600021A448C1609B
:1049E0001021416100218161C16141624FF4805118
:1049F00081620021C1624FF4804101630021416363
:104A000081630020089009900F200A9000200E90EA
:104A100001900290012003900020079001AA08A9AC
:104A20009348FCF76FFE3220FDF710FCD32000F016
:104A300013FB00F029F99049888000F025F98E4990
:104A4000888000F021F98C498880084680884FF6DC
:104A5000FF7101EA00208849888000F015F9864935
:104A600089880843844988800846808849F2413112
:104A700088427DD0042000F0EFFA00F005F97E496D
:104A8000888000F001F97C49888000F0FDF87A49BF
:104A90008880084680884FF6FF7101EA0020764939
:104AA000888000F0F1F87449898808437249888049
:104AB0000846808848F25251884203D147F28970F3
:104AC0006D4988806C48808847F289718842D0D0CF
:104AD000D42000F0C1FA00F0D7F86749888000F0D0
:104AE000D3F86549888000F0CFF86349888008468C
:104AF00080884FF6FF7101EA00205F49888000F04E
:104B0000C3F85D49898808435B49888008468088E6
:104B100045F2103188425FD055214FF4704000F0CB
:104B2000B1FAAA214FF2010000F0ACFA52214FF283
:104B3000020000F0A7FA08214FF2030000F0A2FAE9
:104B400001214FF2040000F09DFA4FF4454000F0BF
:104B500083FA00F099F848498880084680884FF623
:104B6000FF7101EA0020444988804CF2015000E0C6
:104B700032E000F071FA00F087F83F498988084375
:104B80003D4988800846808845F21051884223D0EC
:104B9000A12000F061FA00F077F83749888000F032
:104BA00073F835498880084680884FF6FF7101EA1E
:104BB00000203149888000F067F82F498988084330
:104BC0002D4988800846808845F26171884203D16A
:104BD00041F66310284988802748818827A0FBF781
:104BE0006DFB2548808847F28971884202D1FFF722
:104BF000A5FD25E02048808849F24131884202D154
:104C0000FDF7D8FC1CE01C48808845F21031884232
:104C100002D1FDF7E5FD13E01748808845F21051F9
:104C2000884202D1FEF755FD0AE01348808841F61C
:104C30006311884204D1FFF7CAFC642000F0D6F962
:104C40000020FDF71FFC00BF012211460748FCF7BA
:104C50003BF900BF4FF6FF70FDF7FAFB13B000BD44
:104C6000001002400020014000140140000C0140EF
:104C700000020020040100A0480200204C43442010
:104C800049443A25780D0A0008B503480088009089
:104C9000BDF8000008BD00000008006CF0B5054636
:104CA0000024002788488079012805D1864880881B
:104CB00041F66311884208D183488079F0B982486F
:104CC000808841F66311884218D1082D15D2DFE89B
:104CD00005F00406080A0C0E101206250DE0072543
:104CE0000BE0042509E0052507E0012505E0002586
:104CF00003E0032501E0022500BF00BF082D1CD200
:104D0000DFE805F00406090C0F12151800BF14E0C7
:104D100044F0800411E044F040040EE044F0C0048C
:104D20000BE044F0200408E044F0600405E044F0A7
:104D3000A00402E044F0E00400BF00BF3627624850
:104D4000808845F21051884200D13F025E48808839
:104D500049F24131884205D05B48808847F2897129
:104D6000884201D144F008042146384600F08AF90F
:104D70005548808841F6631188421DD004F0200018
:104D800068B15148008850494988884214DA4E4831
:104D9000068840884C490880084646800CE04A480E
:104DA000008849494988884206DD47480688408886
:104DB00045490880084646804348808845F210519E
:104DC000884252D14049488900F046F9002000F05D
:104DD00037F93D494989491C88B200F03DF9002066
:104DE00000F02EF938494989891C88B200F034F95D
:104DF00035490988491EC1F30F2000F021F93249D5
:104E00004989C91C88B200F027F92F490978491E41
:104E1000C8B200F015F92C49888900F01DF900206E
:104E200000F00EF928498989491C88B200F014F96C
:104E3000002000F005F924498989891C88B200F016
:104E40000BF921494988491EC1F30F2000F0F8F8F9
:104E50001D498989C91C88B200F0FEF81A49897871
:104E6000491EC8B200F0ECF82DE01749488900F05F
:104E7000F3F8002000F0E4F8002000F0E1F8124917
:104E80000988491EC1F30F2000F0DAF80E490978AD
:104E9000491EC8B200F0D4F80B49888900F0DCF84C
:104EA000002000F0CDF8002000F0CAF8064949883B
:104EB000491EC1F30F2000F0C3F803498978491E49
:104EC000C8B200F0BDF8F0BD4802002010B502469F
:104ED0000C464548808841F66311884247D14248D4
:104EE0008079A8B940480088401E801A82B23E49A5
:104EF000488900F0B1F8002000F0A2F8002000F08E
:104F00009FF8101200F09CF8D0B200F099F816E06B
:104F10003549488900F0A0F8101200F091F8D0B29D
:104F200000F08EF830490988491EC1F30F2000F0C7
:104F300087F82D490978491EC8B200F081F82A493E
:104F4000888900F089F8201200F07AF8E0B200F0C9
:104F500077F825494988491EC1F30F2000F070F801
:104F600021498978491EC8B200F06AF83AE01E4823
:104F7000808845F21051884220D11B49488900F0B1
:104F80006BF8101200F05CF817494989491C88B287
:104F900000F062F8D0B200F053F81349888900F0AD
:104FA0005BF8201200F04CF80F498989491C88B23F
:104FB00000F052F8E0B200F043F813E00A494889E3
:104FC00000F04AF8101200F03BF8D0B200F038F8C8
:104FD0000549888900F040F8201200F031F8E0B26D
:104FE00000F02EF810BD0000480200202DE9F04727
:104FF0000446BE2000F030F8052000F021F82046DD
:1050000003F0C1F807464FF066320C4B03F0CEF8C0
:10501000054603F08BF81FFA80F9484600F010F8B7
:10502000012000F00DF8FF2000F00AF8002000F049
:1050300007F8002000F004F8BDE8F0876666044039
:1050400001B5BDF800000090BDF8000001490880DE
:1050500008BD00000008006C01B5BDF8000000901C
:10506000BDF800000149088008BD0000FE07006C83
:105070000248008902490880704700004802002069
:10508000FE07006C024A1080921C118070470000DD
:10509000FE07006C00B585B000BF00BF1E488069E8
:1050A00040F008001C4988610846806900F008004B
:1050B000009000BF00BF00BF00BF00BF084680696E
:1050C00040F0400088610846806900F04000009090
:1050D00000BF00BF00BF402001900120029003905C
:1050E0000320049001A90D48FBF73CFD80200190AE
:1050F00001A90A48FBF736FD00BF012240210748FD
:10510000FBF7E2FE00BF00BF012280210348FBF74E
:10511000DBFE00BF05B000BD0010024000200140D2
:1051200010B5FBF7E9FE4FF4E01001F01BF8482042
:10513000FDF764F84FF4E13001F02EFAFFF7AAFF13
:10514000FFF7D0FBFDF7D8F8002000F005F8FDF7D9
:10515000BBF8002010BD000030B504460225084908
:1051600051F8241001FB05F2064951F824000021F2
:1051700000F02AF8012103480830015530BD000035
:10518000C08300086C00002010B5014600230022F7
:1051900007E00B4850F8210030F8120000B15B1C0A
:1051A000521C084850F821009042F2D84FF47A700F
:1051B0005843044C54F82140B0FBF4F080B210BDC9
:1051C0006C000020C083000830B5034601E003F8FE
:1051D000011B141EA2F10102F9D130BD2DE9F041ED
:1051E00005460E462948076800202949096881F8C4
:1051F000590027480068001D01F0EAF950B9244819
:10520000006890F82C1001208840224909688143E9
:1052100020480160681CD8B9D6B11F4948681C49AC
:10522000096888601A4982680968CA60184909686B
:10523000091D8268516016490968091D8160164A76
:10524000134909684A6111460968491C11601AE04E
:105250007C190F4800684460BC4207D20C480168C2
:10526000091D0E48006801F0E5F90CE008480168E6
:10527000091D0B48006801F0DDF90A480068844206
:1052800001D208480460BDE8F08100008C000020D5
:1052900078000020900000209085002080000020F1
:1052A0007C000020A800002010B5044601F0E8F9B9
:1052B00031480068401C304908603048006840B9F7
:1052C0002E4804600846006801280DD100F016FA47
:1052D0000AE02B48006838B928480068C06AE16ACB
:1052E000884201D82548046026480068401C2549AA
:1052F000086008460068606494F82C10012088401B
:1053000021490968084320490860E16A01EB8101ED
:105310001E4A02EB81014868A0608268E260211D9C
:10532000826851608160E16A01EB8101174A02EBFA
:1053300081026261E16A01EB8101144A52F8211095
:10534000491CE26A02EB8202104B43F8221001F082
:10535000E1F90B48006868B108480068C06AE16A72
:10536000884207D24FF0805009490860BFF34F8F41
:10537000BFF36F8F10BD0000880000207800002070
:1053800094000020A400002090000020C082002093
:1053900004ED00E010B501F073F910480068D0B9D1
:1053A0000F4801F037F90F4801F034F90C480E4965
:1053B00008600C480D49086000221021052001F00A
:1053C000E9FF064908600846006820B108A10348C3
:1053D000006801F05FFA01F09DF910BDC0000020E7
:1053E000A4850020B8850020B8000020BC00002063
:1053F000546D72510000000010B516E001F040F944
:105400000C48C068C468201D01F0E2F80A48006832
:10541000401E0949086009480068401E07490860A5
:1054200001F078F9204600F05FF804480068002891
:10543000E4D110BD7C85002088000020840000207D
:1054400070B504460D46206C70B1216CE0680144D3
:10545000E160D4E90210884201D32168E160284666
:10546000226CE168FBF716F870BD2DE9F0410446A7
:105470000F4615464FF00008A66B206C48B920680F
:1054800000282CD1A06802F013FC80460020A06008
:1054900025E07DB93946226C6068FAF7FBFF216C84
:1054A000606808446060D4E90101884217D320682D
:1054B000606014E03946226CE068FAF7EBFF216C7B
:1054C000E068411AE1602168E068884203D2216CFB
:1054D000A068411AE160022D01D106B1761E701C50
:1054E000A0634046BDE8F08110B50446206B01F092
:1054F0004FF9204601F04CF910BD00000146084A62
:10550000126812680AB9012200E000220A600A68E3
:1055100022B9034A1268D268106800E00020704780
:10552000B800002030B54FF42053174800F00704AE
:105530002CB1C01D20F00700134C041B1B1B02469E
:10554000124C22600024114D6C60D018083820F0F5
:1055500007000F4C206000240D4D2D686C600C4D31
:105560002D682C601146441A4C60094C24680C606C
:10557000084D4C682C60084D4C682C604FF000447E
:10558000064D2C6030BD0000CC850020CC000020F2
:10559000D4000020DC000020D8000020E80000201B
:1055A00000BFFFF729FF064800680128F9D94FF02E
:1055B000805004490860BFF34F8FBFF36F8FF0E74F
:1055C000C082002004ED00E02DE9F04106460D46C2
:1055D00017469846069C0DB9246000E02760E663F4
:1055E00025640121204601F01DFF84F85080002031
:1055F000A064BDE8F08100002DE9F05F82460F460F
:1056000090469B460A9E0C9C4FEA8801A522206B7F
:10561000FAF785FFA8F10100216B01EB800929F061
:10562000070909F0070008B9012000E0002028B9A7
:105630004FF4587224A12DA0FAF740FE87B100253F
:1056400007E0795D04F134004155785D00B902E06E
:105650006D1C102DF5D300BF00214320015502E041
:10566000002084F83400202E01D2012000E0002028
:1056700028B940F2973214A11CA0FAF71FFE202E81
:1056800000D31F26E662E66400202065201D00F09E
:10569000CEFF04F1180000F0CAFF2461C6F120001B
:1056A000A06164620020606584F8580084F85900A5
:1056B0005A465146484600F015FC20600B9808B148
:1056C0000B980460BDE8F09F2E2E5C2E2E5C4D6979
:1056D00064646C6577617265735C4672656552548B
:1056E0004F535C7461736B732E6300004572726F6D
:1056F000723A2025732C2025640D0A0010B5002471
:1057000007E004EB84010F4A02EB810000F082FF06
:10571000641C202CF5D30C4800F07CFF0B4800F0F3
:1057200079FF0B4800F076FF0A4800F073FF0A4843
:1057300000F070FF044809490860044808490860FF
:1057400010BD0000C082002040850020548500204C
:10575000688500207C850020908500207C0000204A
:105760008000002010B50146164800E0006803687C
:105770008B42FBD30246436813448B4204D14368F7
:105780004C682344436001460A464B68134404684E
:10579000A34211D10C4C03682468A34208D04B6883
:1057A0000468646823444B6003681B680B6005E071
:1057B000054B1B680B6001E003680B60884200D05A
:1057C000016010BDCC000020D40000202DE9F04184
:1057D00004460D4616461F464FF0000865602461DA
:1057E000B5420CD8F01BA169884202D34FF00108E2
:1057F00011E0211D0948006800F01CFF0BE0BE42CB
:1058000004D2BD4202D34FF0010804E0211D044838
:10581000006800F00FFF4046BDE8F081BC000020AA
:10582000B800002070B5054600F02AFFA86B08B943
:10583000012400E0002400F06DFF204670BD70B52B
:10584000054600F01DFFA86BE96B884201D10124D9
:1058500000E0002400F05EFF204670BDF1B5009826
:10586000846C00262CB940F6D53220A128A0FAF786
:1058700025FDA06BE16B884201D2012000E00020F1
:1058800028B940F6D63219A121A0FAF717FDA06B6E
:10589000E16B884227D294F94550002269462046A0
:1058A000FFF7E3FD0646681C60B9606A08B901208D
:1058B00000E00020B0B904F1240002F081FA88B1C0
:1058C00001260FE07F2D01D0012000E0002028B943
:1058D00040F6F63205A10EA0FAF7F0FC681C40B2C3
:1058E00084F8450000BF3046F8BD00002E2E5C2E27
:1058F0002E5C4D6964646C6577617265735C467299
:10590000656552544F535C71756575652E63000073
:105910004572726F723A2025732C2025640D0A009F
:1059200070B505460E460E480068C068C468201D64
:1059300000F04EFE94F8280000F0040028B1324632
:105940002946204600F0FEF805E094F8280000F013
:10595000FE0084F828002046216A884770BD0000B8
:10596000B800002070B586B08AE0029800280CDAF2
:1059700003AE2EB940F2063247A150A0FAF79EFCC2
:10598000D6E90020B168904700BF0298002877DB75
:10599000049C606908B9012000E0002010B9201DB6
:1059A00000F016FE01A800F0F9F8054602980A2852
:1059B00064D2DFE800F06305072E365306082F3760
:1059C00000BF00BF00BF94F8280040F0010084F839
:1059D00028000398A269811803462A462046FFF74B
:1059E000F5FEA8B194F8280000F0040038B103983F
:1059F000A26981182A46204600F0A4F805E094F830
:105A0000280000F0FE0084F828002046216A88471C
:105A100035E000BF94F8280000F0FE0084F828006C
:105A20002DE000BF94F8280040F0010084F8280021
:105A30000398A061A06908B1012000E0002028B906
:105A400040F2593214A11DA0FAF738FCA06941199F
:105A50002B462A462046FFF7B9FE10E094F82800AE
:105A600000F0020018B9204600F092FE05E094F81C
:105A7000280000F0FE0084F8280000E000BF00BF0E
:105A8000002202A91148006801F03CFE00287FF4C2
:105A90006CAF06B070BD00002E2E5C2E2E5C4D69E2
:105AA00064646C6577617265735C467265655254B7
:105AB0004F535C74696D6572732E63004572726F2B
:105AC000723A2025732C2025640D0A00C0000020A6
:105AD000F8B505460C4601F0F9F9684600F05EF8A5
